:03000000020003F8
:0C000300787FE4F6D8FD75811102004AF8
:0C0125000A083F065B4F666D7D077F6F88
:10011300AE071FEE600B007E027DC7DDFEDEFC80B6
:01012300EFEC
:0101240022B8
:10008F00EF14B4080050549000A475F003A4C58376
:10009F0025F0C583730200BC0200C00200C4020039
:1000AF00C80200CC0200D40200DC0200E4C295803A
:1000BF000EC2958012C2958016C295801AD295C233
:1000CF0094C2938016D295C294D293800ED295D2B9
:1000DF0094C2938006D295D294D29374082DF8E6E9
:0B00EF00F5807F01120113E4F5802270
:1000FA007D017C007F0112008F7D027F0212008F3A
:09010A007D037F0312008F80E7E2
:10000F000200FAE493A3F8E493A34003F68001F20D
:10001F0008DFF48029E493A3F85407240CC8C333F2
:10002F00C4540F4420C8834004F456800146F6DFC1
:10003F00E4800B0102040810204080900125E47E2B
:10004F00019360BCA3FF543F30E509541FFEE493B6
:10005F00A360010ECF54C025E060A840B8E493A37D
:10006F00FAE493A3F8E493A3C8C582C8CAC583CAA8
:10007F00F0A3C8C582C8CAC583CADFE9DEE780BE60
:0101310000CD
:00000001FF
