:03000000020003F8
:0C000300787FE4F6D8FD75812002004AE9
:0C0183000A083F065B4F666D7D077F6F2A
:040169007F0A7E008B
:10016D00EF1FAC0670011E4C600B007D027CC7DCDE
:05017D00FEDDFC80EB3B
:01018200225A
:10008F00EF14B4080050549000A475F003A4C58376
:10009F0025F0C583730200BC0200C00200C4020039
:1000AF00C80200CC0200D40200DC0200E4C295803A
:1000BF000EC2958012C2958016C295801AD295C233
:1000CF0094C2938016D295C294D293800ED295D2B9
:1000DF0094C2938006D295D294D29374082DF8E6E9
:0D00EF00F5807F017E0012016DE4F5802296
:1000FC00C20020EAFD12016930EAFD120169B2006A
:10010C003000557B633000EAEBD3940040E4E4F517
:10011C0012F51320EA1012016920EA0A30EAFD12E6
:10012C000169C200802CEB75F00A84FAEB75F00AB9
:10013C0084A9F0AD027F0112008FAD017F02120085
:10014C008F0513E51370020512C394F4E5129401A4
:0D015C0040C13000B01B80ADE4F5808095FF
:10000F000200FCE493A3F8E493A34003F68001F20B
:10001F0008DFF48029E493A3F85407240CC8C333F2
:10002F00C4540F4420C8834004F456800146F6DFC1
:10003F00E4800B0102040810204080900183E47ECD
:10004F00019360BCA3FF543F30E509541FFEE493B6
:10005F00A360010ECF54C025E060A840B8E493A37D
:10006F00FAE493A3F8E493A3C8C582C8CAC583CAA8
:10007F00F0A3C8C582C8CAC583CADFE9DEE780BE60
:01018F00006F
:00000001FF
